{
  "contractName": "Auction",
  "abi": [
    {
      "inputs": [],
      "stateMutability": "nonpayable",
      "type": "constructor"
    },
    {
      "inputs": [],
      "name": "putBid",
      "outputs": [],
      "stateMutability": "payable",
      "type": "function",
      "payable": true
    },
    {
      "inputs": [
        {
          "internalType": "address",
          "name": "_address",
          "type": "address"
        }
      ],
      "name": "getBidderBid",
      "outputs": [
        {
          "internalType": "uint256",
          "name": "",
          "type": "uint256"
        }
      ],
      "stateMutability": "view",
      "type": "function",
      "constant": true
    },
    {
      "inputs": [],
      "name": "HighestBid",
      "outputs": [
        {
          "internalType": "uint256",
          "name": "",
          "type": "uint256"
        }
      ],
      "stateMutability": "view",
      "type": "function",
      "constant": true
    },
    {
      "inputs": [],
      "name": "HighestBidder",
      "outputs": [
        {
          "internalType": "address",
          "name": "",
          "type": "address"
        }
      ],
      "stateMutability": "view",
      "type": "function",
      "constant": true
    },
    {
      "inputs": [
        {
          "internalType": "uint256",
          "name": "_endTime",
          "type": "uint256"
        }
      ],
      "name": "putEndTime",
      "outputs": [],
      "stateMutability": "nonpayable",
      "type": "function"
    },
    {
      "inputs": [],
      "name": "endAuction",
      "outputs": [],
      "stateMutability": "nonpayable",
      "type": "function"
    },
    {
      "inputs": [
        {
          "internalType": "address payable",
          "name": "_address",
          "type": "address"
        }
      ],
      "name": "withdrawBid",
      "outputs": [],
      "stateMutability": "nonpayable",
      "type": "function"
    }
  ],
  "bytecode": "0x6080604052426003556000600560146101000a81548160ff02191690831515021790555034801561002f57600080fd5b5033600560006101000a81548173ffffffffffffffffffffffffffffffffffffffff021916908373ffffffffffffffffffffffffffffffffffffffff1602179055506107db806100806000396000f3fe6080604052600436106100705760003560e01c8063996657af1161004e578063996657af146100f2578063e71ba2bd1461011d578063f5cc772a1461015a578063fe67a54b1461016457610070565b8063167fb50e146100755780634ede3648146100a05780637f6a9d50146100c9575b600080fd5b34801561008157600080fd5b5061008a61017b565b60405161009791906104c0565b60405180910390f35b3480156100ac57600080fd5b506100c760048036038101906100c2919061053e565b610185565b005b3480156100d557600080fd5b506100f060048036038101906100eb9190610597565b610255565b005b3480156100fe57600080fd5b5061010761025f565b60405161011491906105e5565b60405180910390f35b34801561012957600080fd5b50610144600480360381019061013f919061062c565b610289565b60405161015191906104c0565b60405180910390f35b6101626102d1565b005b34801561017057600080fd5b50610179610434565b005b6000600154905090565b60008060008373ffffffffffffffffffffffffffffffffffffffff1673ffffffffffffffffffffffffffffffffffffffff168152602001908152602001600020541115610252578073ffffffffffffffffffffffffffffffffffffffff166108fc6000808473ffffffffffffffffffffffffffffffffffffffff1673ffffffffffffffffffffffffffffffffffffffff168152602001908152602001600020549081150290604051600060405180830381858888f19350505050158015610250573d6000803e3d6000fd5b505b50565b8060048190555050565b6000600260009054906101000a900473ffffffffffffffffffffffffffffffffffffffff16905090565b60008060008373ffffffffffffffffffffffffffffffffffffffff1673ffffffffffffffffffffffffffffffffffffffff168152602001908152602001600020549050919050565b6000346000803373ffffffffffffffffffffffffffffffffffffffff1673ffffffffffffffffffffffffffffffffffffffff1681526020019081526020016000205461031d9190610688565b905060003411610362576040517f08c379a000000000000000000000000000000000000000000000000000000000815260040161035990610719565b60405180910390fd5b60015481116103a6576040517f08c379a000000000000000000000000000000000000000000000000000000000815260040161039d90610785565b60405180910390fd5b806000803373ffffffffffffffffffffffffffffffffffffffff1673ffffffffffffffffffffffffffffffffffffffff168152602001908152602001600020819055508060018190555033600260006101000a81548173ffffffffffffffffffffffffffffffffffffffff021916908373ffffffffffffffffffffffffffffffffffffffff16021790555050565b600560009054906101000a900473ffffffffffffffffffffffffffffffffffffffff1673ffffffffffffffffffffffffffffffffffffffff163373ffffffffffffffffffffffffffffffffffffffff16036104a5576001600560146101000a81548160ff0219169083151502179055505b565b6000819050919050565b6104ba816104a7565b82525050565b60006020820190506104d560008301846104b1565b92915050565b600080fd5b600073ffffffffffffffffffffffffffffffffffffffff82169050919050565b600061050b826104e0565b9050919050565b61051b81610500565b811461052657600080fd5b50565b60008135905061053881610512565b92915050565b600060208284031215610554576105536104db565b5b600061056284828501610529565b91505092915050565b610574816104a7565b811461057f57600080fd5b50565b6000813590506105918161056b565b92915050565b6000602082840312156105ad576105ac6104db565b5b60006105bb84828501610582565b91505092915050565b60006105cf826104e0565b9050919050565b6105df816105c4565b82525050565b60006020820190506105fa60008301846105d6565b92915050565b610609816105c4565b811461061457600080fd5b50565b60008135905061062681610600565b92915050565b600060208284031215610642576106416104db565b5b600061065084828501610617565b91505092915050565b7f4e487b7100000000000000000000000000000000000000000000000000000000600052601160045260246000fd5b6000610693826104a7565b915061069e836104a7565b92508282019050808211156106b6576106b5610659565b5b92915050565b600082825260208201905092915050565b7f4249442043414e4e4f54204245205a45524f0000000000000000000000000000600082015250565b60006107036012836106bc565b915061070e826106cd565b602082019050919050565b60006020820190508181036000830152610732816106f6565b9050919050565b7f686967686573722062696420697320616c726564792070726573656e74000000600082015250565b600061076f601d836106bc565b915061077a82610739565b602082019050919050565b6000602082019050818103600083015261079e81610762565b905091905056fea2646970667358221220047569baebd6939cd1a7dd7900db8fffce3964fe2b452dd394d9b1646611aed664736f6c63430008110033",
  "immutableReferences": {},
  "source": "// SPDX-License-Identifier: GPL-3.0\r\n\r\npragma solidity >0.4.0 <0.9.0;\r\n\r\ncontract Auction{\r\n    mapping(address => uint) biddersData;\r\n   \r\n    uint highestBidAmount;\r\n   \r\n    address highestBidder;\r\n   \r\n    uint startTime=block.timestamp;\r\n   \r\n    uint endTime;\r\n   \r\n    address owner;\r\n   \r\n    bool auctionEnded=false;\r\n   \r\n    constructor(){\r\n   \r\n   \r\n        owner=msg.sender;\r\n   \r\n    }\r\n\r\n\r\n    //put new bid\r\n    function putBid() public payable{\r\n        \r\n        //verify require value IS NOT ZERO\r\n        uint CalculateAmount=biddersData[msg.sender]+msg.value;\r\n\r\n        //check session not ended\r\n        //require(auctionEnded==true,\"auction is ended\");\r\n        //require(block.timestamp<=endTime,\"Auction is ended\");\r\n\r\n       require(msg.value>0,\"BID CANNOT BE ZERO\");\r\n        \r\n        \r\n        //check highestbid;\r\n        require(CalculateAmount>highestBidAmount,\"highesr bid is alredy present\");\r\n\r\n\r\n        biddersData[msg.sender]=CalculateAmount;\r\n        \r\n        highestBidAmount=CalculateAmount;\r\n        \r\n        highestBidder = msg.sender;\r\n    }\r\n    //get contract balance\r\n    function getBidderBid(address _address) public view returns(uint){\r\n      \r\n       return  biddersData[_address];\r\n\r\n    }\r\n\r\n    function HighestBid() public view returns(uint){\r\n        \r\n        return highestBidAmount;\r\n    \r\n    }\r\n\r\n\r\n    function HighestBidder() public view returns(address){\r\n       \r\n        return highestBidder;\r\n    \r\n    }\r\n\r\n\r\n\r\n//put endtime\r\n\r\n    function putEndTime(uint _endTime) public {\r\n\r\n        endTime=_endTime;\r\n    }\r\n\r\n\r\n\r\n    //put endtime\r\n\r\n\r\n\r\n    function endAuction() public{\r\n\r\n        if(msg.sender==owner){\r\n\r\n            auctionEnded=true;\r\n\r\n        }\r\n\r\n    }\r\n\r\n\r\n\r\n\r\n    //withdwrawbid\r\n\r\n    function withdrawBid(address payable _address)public{\r\n\r\n        if(biddersData[_address]>0){\r\n\r\n            _address.transfer(biddersData[_address]);\r\n\r\n        }\r\n\r\n    }\r\n\r\n\r\n\r\n}\r\n\r\n\r\n",
  "sourcePath": "C:\\Users\\deepx\\OneDrive\\Desktop\\knk\\contracts\\project.sol",
  "compiler": {
    "name": "solc",
    "version": "0.8.17+commit.8df45f5f.Emscripten.clang"
  },
  "schemaVersion": "3.4.10",
  "updatedAt": "2022-11-20T09:02:20.341Z",
  "networkType": "ethereum",
  "devdoc": {
    "kind": "dev",
    "methods": {},
    "version": 1
  },
  "userdoc": {
    "kind": "user",
    "methods": {},
    "version": 1
  }
}